:020000040800F2
:10000000880C002001010008892400088B1F0008CB
:100010003524000899080008F531000800000000A8
:10002000000000000000000000000000392B000864
:10003000B508000800000000FF280008812B000818
:100040001B0100081B0100081B0100081B01000820
:100050001B0100081B0100081B0100081B01000810
:100060001B0100081B0100081B0100081B01000800
:100070001B0100081B0100081B0100081B010008F0
:100080001B0100081B0100081B0100081B010008E0
:100090001B0100081B0100081B0100081B010008D0
:1000A0001B0100081B0100081B0100081B010008C0
:1000B000E52B00081B010008F12B00081B010008BC
:1000C0001B0100081B0100081B0100081B010008A0
:1000D0001B0100081B010008E93100081B01000892
:1000E0001B0100081B0100081B010008DFF80CD0F1
:1000F00000F0C0FB00480047C93C0008880C002005
:100100000648804706480047FEE7FEE7FEE7FEE7B1
:10011000FEE7FEE7FEE7FEE7FEE7FEE7E32B00086B
:10012000ED000008202A04DB203A21FA02F0002129
:10013000704721FA02F3D040C2F1200291400843F7
:100140001946704740EA01039B0703D009E008C93C
:10015000121F08C0042AFAD203E011F8013B00F88C
:10016000013B521EF9D27047D2B201E000F8012BD8
:10017000491EFBD270470022F6E710B513460A4627
:1001800004461946FFF7F0FF204610BD30B505467E
:100190002A460B4612F8010B13F8014B08B1A04296
:1001A000F8D01CB1002802D06D1CF1E7284630BD04
:1001B00010B5044604E00B7800F8013B03B1491C7C
:1001C000521EF8D2204610BD421C10F8011B002917
:1001D000FBD1801A704710B5002200E0521C835CEE
:1001E0008C5CA34201D1002BF8D1D8B2E1B2401A05
:1001F00010BD034611F8012B00F8012B002AF9D19C
:100200001846704780EA010210B502F00043400032
:1002100022D04A001FD0010E01EB1261C0F356003C
:10022000C2F3560240F4000042F40002A0FB022098
:1002300000047F39140400D0401C50EA124001D45D
:100240004000491EC2B20C0604EBD010401C40080E
:10025000802A02D003E0002010BD20F00100002918
:1002600000DA0020184310BD420005D0C0F3C75289
:100270005242914201DC0020704700EBC1507047B0
:100280002DE9FE4F804681EA0300C00F0C46009026
:1002900021F0004123F00045B8EB0200A94105D24E
:1002A0004046214690461C460B46024623F000403D
:1002B000104347D0270DC7F30A00C3F30A51029039
:1002C000401A019040286BDAC3F3130040F4801BFE
:1002D0000098924620B10023D2EB030A63EB0B0B8C
:1002E00001985946C0F14002504600F0F6F9064622
:1002F0000D4650465946019A00F0FEF910EB0800F1
:100300006141002487EA115284EAE7731A4340D01E
:10031000009A62B3019A012A4FEA075215DC001BCA
:1003200061EB02014FF0004202EA0752CDE90042C0
:10033000001C41F5801132462B4600F035FA03B01F
:10034000BDE8F08F40462146F9E7001B61EB020152
:10035000001C41F5801300185B412018A2F500171E
:1003600047EB030140EAD570B6196D4111E06D0805
:100370004FEA360645EAC0754FEA0752001B61EBAB
:100380000201001C41F5801149084FEA30000019B4
:10039000514132462B4603B0BDE8F04F00F0F5B9AD
:1003A0000098012240000023D0EB020263EBE073CF
:1003B000009821464FEAE074B8EB000061EB0401BD
:1003C000E9E783F000435BE781F0004158E72DE95E
:1003D000FE4F81EA030404F0004421F00041009440
:1003E0004FF0000B23F0004350EA01045ED052EAC4
:1003F00003045BD0C3F30A54C1F30A552C44A4F29E
:10040000F3340194A0FB0254C1F3130141F48011B1
:10041000C3F3130343F4801301FB024400FB034EB8
:10042000840A970A44EA815447EA8357A4FB076881
:1004300002958D0A05FB07854FEA932C04FB0C54AB
:100440002705029D4FEA065847EA1637B5EB08051F
:100450006EEB070C870E920E47EA811742EA831271
:10046000A7FB0201B6EB0B0164EB00042B0D43EA82
:100470000C335E1844EB1C50DA465146E7FB020190
:10048000C5F313044FEA0B3343EA14534FEA043223
:10049000019C43EA0603A4F10C040294009CCDE9FC
:1004A00000B400F081F903B0BDE8F08F00200146F0
:1004B000F9E72DE9F04D81EA030404F0004B21F047
:1004C000004514464FF0000A23F0004150EA0502AF
:1004D00020D054EA01021DD0C5F30A570246C5F3E5
:1004E0001303C1F31300C1F30A5640F4801543F41B
:1004F0008013A7EB0608101BD64608F2FD3873EBF5
:10050000050002D308F1010801E092185B41B8F13F
:10051000000F03DA00200146BDE8F08D00204FF403
:100520008011064684460EE0171B73EB050705D3C2
:10053000121B63EB050306434CEA010C49084FEA22
:10054000300092185B4150EA0107EDD152EA0300F6
:1005500012D082EA040083EA0501084305D0101B8B
:10056000AB4106D20122002306E000224FF00043F7
:1005700002E06FF0010253101AEB06004CEB085139
:1005800010EB0A0041EB0B01BDE8F04D00F0FDB8A7
:10059000C10F80EAE0700844CA079623002100F0EA
:1005A000C6B80EB540F2334102910021CDE90011E9
:1005B0000A460B4600F0F8F803B000BD00F0004218
:1005C00030F000400AD0C10D01F56071C0F3160093
:1005D00042EA0151C208400711437047002001461A
:1005E0007047000030B5041E71F1000404DB4FF0C9
:1005F0000044404264EB0101141E73F1000405DB6A
:100600001C464FF00043524263EB0403994208BF7B
:10061000904230BD01F0004330B421F0004150EA77
:10062000010206D00A0DA2F56072C1F31301002A7F
:1006300002DC30BC00207047440F44EAC104C10012
:10064000E01830BC00EBC25000F068B830B50B4683
:10065000014600202022012409E021FA02F59D42F2
:1006600005D303FA02F5491B04FA02F52844151EC6
:10067000A2F10102F1DC30BD2DE9F05F054600205A
:1006800092469B4688460646814640241BE0284603
:10069000414647462246FFF745FD53465A46C01A93
:1006A000914110D311461846224600F016F82D1A33
:1006B00067EB01084F4622460120002100F00DF8AB
:1006C00017EB00094E41201EA4F10104DFDC48466F
:1006D00031462A464346BDE8F09F202A04DB203AF3
:1006E00000FA02F1002070479140C2F1200320FA85
:1006F00003F3194390407047202A06DBCB17203ABA
:1007000041FA02F043EAE07306E041FA02F3D04016
:10071000C2F1200291400843194670470029A8BF42
:100720007047401C490008BF20F00100704710B41A
:10073000B0FA80FC00FA0CF050EA010404BF10BCCF
:10074000704749B1CCF1200421FA04F411FA0CF1FC
:1007500018BF012121430843A3EB0C01CB1D4FEA35
:1007600000614FEA102042BF002010BC704700EB30
:10077000C35010440029A4BF10BC7047401C49005E
:1007800008BF20F0010010BC704710B5141E73F1B3
:10079000000408DA401C41F1000192185B411A4341
:1007A00001D120F0010010BD2DE9F04D92469B468D
:1007B00011B1B1FA81F202E0B0FA80F22032904633
:1007C000FFF78BFF04460F4640EA0A0041EA0B019F
:1007D00053465A46084313D0114653EA010019D034
:1007E000C8F140025046FFF79DFC05460E465046B4
:1007F00059464246FFF771FF084305D0012004E047
:1008000020463946BDE8F08D0020054346EAE076F3
:100810002C4337430A986305E40AA0EB0800002242
:10082000FD0A44EA47540A3002D500200146E9E7B0
:10083000010510196941DDE9084500196941BDE864
:10084000F04DA2E7C1F30A52C1F3130140F2FF33A6
:1008500041F480119A4202DA00200146704740F2CA
:1008600033439A42A2F2334202DC5242FFF75ABCAF
:10087000FFF733BF064C074D06E0E06840F0010388
:1008800094E8070098471034AC42F6D3FFF732FCE7
:10089000FC4B00081C4C0008FEE7000010B50C21C2
:1008A000034801F0B5F8024964200968086410BDE6
:1008B000DC000020704772B6FEE710B590F82110FA
:1008C0000022022905D00421816380F82020012024
:1008D00010BD01680B6823F00E030B6001680B6804
:1008E00023F001030B6090F84030C46B012101FA42
:1008F00003F3636080F8211080F82020104610BDBB
:1009000010B590F821100024022903D0042181633E
:1009100001243DE001680A6822F00E020A600168C5
:100920000A6822F001020A601A4A0168914201D164
:10093000012121E0174A1432914201D110211BE01C
:10094000144A2832914201D1891515E0114A3C32EE
:10095000914201D189140FE00E4A5032914202D1E6
:100960004FF4803108E00B4A6432914202D14FF4D7
:10097000801101E04FF08071064A083A5160012170
:1009800080F82110002180F82010416B01B18847C8
:10099000204610BD0800024070B5044600F008F97A
:1009A0000546601C02D004480078044400F000F9B9
:1009B000401BA042FAD370BD080000202DE9F84F7B
:1009C000DFF8B8910024A9F1040B23460F2709F1A1
:1009D000040AABF1040EC9E00125A5402A40AA4251
:1009E0007DD1674ED1F804C0ACEB0608B44532D0D7
:1009F00014DCBCF1030F3AD009DCBCF1000F2AD0A3
:100A0000BCF1010F1CD0BCF1020F31D11DE0BCF1D3
:100A1000110F17D0BCF1120F2AD119E0B8F5881FB9
:100A200019D006DCB8F5803F15D0B8F5801F1FD16E
:100A300011E0B8F5001F0ED0B8F5041F18D10AE078
:100A4000CB6815E0CB681B1D12E0CB6808330FE0C4
:100A5000CB680C330CE08B682BB1012B4FF00803F3
:100A600003D0456104E0042302E0056100E00023B7
:100A7000FF2A01D8064601E000F104064FEA84058A
:100A800001D9A5F12005D6F8008007FA05FC28EA6F
:100A90000C0803FA05F548EA0508C6F800804D6819
:100AA000ED0062D5374DAE6946F00106AE61AD6925
:100AB00024F0030605F001050095334D06EB050C07
:100AC000DCF80850A607360F07FA06F825EA0805ED
:100AD000DFF8B880404503D14FF0000817E044E04C
:100AE000DFF8AC80404502D14FF001080FE0DFF89D
:100AF000A480404502D14FF0020808E0DFF898805A
:100B0000404502D14FF0030801E04FF0040808FA15
:100B100006F848EA0508CCF808804D68D9F8006066
:100B2000ED024D4601D5164300E096432E604D6818
:100B3000DAF80060AD02554601D5164300E0964351
:100B40002E604D68DBF80060AD035D4601D51643AD
:100B500000E096432E604D68DEF80060ED037546B8
:100B600001D5164300E096432E60641C0D682A46AA
:100B7000E5407FF431AFBDE8F88F00000804014084
:100B80000000111000100240000001400008014068
:100B9000000C014000100140001401408068084032
:100BA00000D0012070470AB1016170470904FBE7DA
:100BB00001488068704700000800002002488168F2
:100BC000027811448160704708000020074810B582
:100BD000016841F010010160032000F075F80F205A
:100BE00000F006F800F024F8002010BD00200240BC
:100BF00070B50D4D04464FF47A712878B1FBF0F0D2
:100C00000A490968B1FBF0F000F0DCFA48B9102C91
:100C100007D200222146501E00F036F800206C60FA
:100C200070BD012070BD00000800002014000020ED
:100C30000C4808B5816941F001018161816901F0C9
:100C400001010091C16941F08051C161C06900F0AA
:100C5000805000900448416821F0E06141F000714B
:100C6000416008BD0010024000000140002809DB7F
:100C700000F01F02012191404009800000F1E020B6
:100C8000C0F8001170470000F0B40E4B1B680C4612
:100C9000C3F30223C3F10705042D00D90425191D50
:100CA000072901D2002300E0DB1E012606FA05F128
:100CB000491E214099409E40761E16403143F0BCAB
:100CC00002F0EABA0CED00E0064900F007020868FD
:100CD0004FF6FF03184040EA0220034A1043086021
:100CE000704700000CED00E00000FA052DE9F04728
:100CF0000F46050061D0434E306800F00700B8424F
:100D000009D2306820F0070038433060306800F0C6
:100D10000700B84251D128683B4C810712D54007E3
:100D200003D5606840F4E06060602878000703D570
:100D3000606840F4605060606068A96820F0F0006E
:100D4000084360602878C00728D06868012810D060
:100D50002168022810D0890700292EDA616821F065
:100D6000030101436160FFF723FF804641F28839A8
:100D70000DE021688903EFE78901EDE7FFF718FF30
:100D8000A0EB0801494502D90320BDE8F08760685F
:100D9000696800F00C00B0EB810FEFD1306800F013
:100DA0000700B8420BD9306820F0070038433060A4
:100DB000306800F00700B84201D00120E5E728784C
:100DC000400705D56068E96820F4E060084360608A
:100DD0002878000706D56068296920F4605040EA49
:100DE000C100606000F038F86168084AC1F303117F
:100DF000515CC8400649086006480068FFF7F8FEE5
:100E00000020C2E70020024000100240E63F000838
:100E1000140000200C0000200448054900684968BF
:100E2000044AC1F30221515CC840704714000020FD
:100E300000100240F63F0008044805490068496870
:100E4000044AC1F3C221515CC8407047140000201D
:100E500000100240F63F00080E4A51680E4801F0AB
:100E60000C03042B11D0082B0FD10C48C1F3834382
:100E7000C903C05C0AD55168084AC1F34041921EBB
:100E8000515C054A5043B0FBF1F0704704494843B8
:100E9000704700000010024000127A00D63F0008A0
:100EA00000093D002DE9F84F040070D02078C04DB6
:100EB000C00749D06868C0F38100012807D068687E
:100EC000C0F38100022809D16868C00306D52868EC
:100ED000800339D560680028E7D035E06068B0F558
:100EE000803F0BD010B1B0F5A02F11D0286820F4AE
:100EF00080302860286820F4802002E0286840F4D0
:100F000080302860606890B1FFF752FE06460AE024
:100F1000286840F480202860F0E700BFFFF748FE13
:100F2000801B642873D828688003F7D50CE0FFF78E
:100F30003FFE064605E000BFFFF73AFE801B64282F
:100F4000F0D828688003F7D420789A4E80074FF0B5
:100F500001094FF0000839D5686810F00C0F07D070
:100F60006868C0F38100022809D16868C00306D40C
:100F70002868800714D52069012808D110E020696D
:100F8000B0B1C6F80090FFF713FE074605E00AE18E
:100F9000FFF70EFEC01B0228C4D828688007F7D5CB
:100FA0002868616920F0F80040EAC10028600DE07F
:100FB000C6F80080FFF7FCFD074604E0FFF7F8FDE8
:100FC000C01B022823D828688007F7D420780007A0
:100FD0002CD57948A169D9B1C0F80090FFF7E8FD98
:100FE000074604E0FFF7E4FDC01B02280FD8686A3B
:100FF0008007F7D571484FF4FA510068B0FBF1F063
:10100000009000BF0098411E0091FAD20EE080E0EF
:10101000C0F80080FFF7CCFD074604E0FFF7C8FDED
:10102000C01B022875D8686A8007F7D4207840076B
:1010300060D5E8690027C00008D4E86940F0805016
:10104000E861E869012700F0805000905C48016881
:10105000C90513D40168834641F480710160FFF72C
:10106000A7FD824606E000BFFFF7A2FDA0EB0A0045
:1010700064284ED8DBF80000C005F5D5E0680128EB
:101080000AD008B1052813D0286A20F00100286290
:10109000286A20F0040002E0286A40F0010028627B
:1010A000E06841F2883B98B1FFF782FD82460BE091
:1010B000286A40F004002862EEE700BFFFF778FDE1
:1010C000A0EB0A0159455AD8286A8007F6D50CE0EA
:1010D000FFF76EFD824605E0FFF76AFDA0EB0A010F
:1010E00059454CD8286A8007F6D41FB1E86920F02A
:1010F0008050E861E06988B36968C1F38101022921
:1011000044D00228C6F8608004D0FFF751FD0446A1
:1011100038E034E0FFF74CFD074604E0FFF748FDF8
:10112000C01B02282BD828688001F7D4206AB0F5AC
:10113000803F05D16868A16820F4003008436860EA
:10114000D4E908010843696821F474110843686010
:10115000C6F86090FFF72CFD044606E025E000BFCE
:10116000FFF726FD001B022809D828688001F7D563
:101170001BE000BFFFF71CFD001B022802D9032063
:10118000BDE8F88F28688001F4D40EE00128F7D07C
:101190006868226A00F48031914204D1616A00F4E7
:1011A0007010884201D00120EAE70020E8E7000043
:1011B000001002400000424280044242140000201D
:1011C0000070004010B5401EB0F1807F01D30120B7
:1011D00010BD4FF0E02460610F21601702F05CF851
:1011E0000020A06107202061002010BD70477047DB
:1011F00070B590F83C20012A26D0012480F83C40AC
:10120000022280F83D2003685A689D6822F070062B
:101210000A6832435A600D4B02689A4208D0B2F114
:10122000804F05D00A4B9A4202D00A4B9A4204D111
:10123000496825F080031943916080F83D40002102
:1012400080F83C10084670BD022070BD002C0140A3
:10125000000400400008004010B5040003D094F8DA
:101260003D0010B107E0012010BD002084F83C00D3
:10127000204600F01FF8022084F83D00211D206860
:1012800001F0BCFC012084F8460084F83E0084F89C
:101290003F0084F8400084F8410084F8420084F85C
:1012A000430084F8440084F8450084F83D000020A1
:1012B00010BD000000B585B00021009101910291A0
:1012C0000391274A01682748914217D1816941F467
:1012D00000618161816901F400610491816941F0DB
:1012E000040181618069694600F004000490901552
:1012F00000901D48FFF762FB05B000BDB1F1804FC3
:101300000BD01A4A914217D1C16941F00201C16163
:10131000C06900F002000490EEE7C16941F00101EC
:10132000C161C069002200F00100049011461C2038
:10133000FFF7AAFC1C2010E00D4A9142DCD1C169E4
:1013400041F00401C161C069002200F00400049072
:1013500011461E20FFF798FC1E20FFF787FCCBE705
:10136000002C014000100240000801400004004031
:101370000008004090F83D10012901D0012070477D
:10138000022180F83D100168CA6842F00102CA607B
:1013900000680B49884208D0B0F1804F05D0094958
:1013A000884202D00849884204D1816801F00701CF
:1013B000062903D0016841F0010101600020704757
:1013C000002C014000040040000800400168CA6889
:1013D00022F00102CA6001680A6A41F211131A423E
:1013E00007D10A6A9B101A4203D10A6822F001024F
:1013F0000A60012180F83D100020704770B5044656
:1014000090F83C000025012817D0012684F83C60A4
:10141000022084F83D002068826822F0770222F4DE
:101420007F4282600868502838D00DDC20284FD0D9
:1014300005DC90B3102811D14AE0022070BD30289D
:1014400046D040280AD13BE060282FD070280DD02C
:10145000B0F5805F03D0B0F5005F12D0012584F8AD
:101460003D60002084F83C00284670BDCB68D1E97F
:101470000121206801F00BFC2068816841F07701B0
:1014800009E0CB68D1E90121206801F000FC206867
:10149000816841F480418160E1E719E0CA684968E8
:1014A000206801F0A9FC5021206806E0CA6849685C
:1014B000206801F0DFFC6021206801F0F2FBCEE73C
:1014C000CA684968206801F097FC40212068F4E769
:1014D000226801461046F0E770472DE9F0410546C5
:1014E00090F83C0000260C46012810D0012085F819
:1014F0003C0072B1042A1CD0082A2CD00C2A50D0EF
:101500000126002085F83C003046BDE8F08102202D
:10151000FBE7D4E90012E368286801F07FFC286843
:10152000816921F00C01816128688169A2681143F9
:101530000FE0D4E90012E368286801F0ADFC2868E8
:10154000816921F44061816128688169A26841EA6A
:1015500002218161D5E72868D4E9002C277B036A42
:10156000016A21F480710162C16923F4007321F0E2
:10157000030141EA0C0121F0F00C39074FF4007728
:101580004CEA116107EA02221A43C161026228682B
:10159000C16921F00C01C1612868C169A2681143C9
:1015A0002BE02868D4E90021E768036AD0F820C05E
:1015B0002CF4805CC0F820C0D0F81CC023F4005389
:1015C0002CF4407C4CEA012121F4704C4FF6FF7161
:1015D00001EA07314FF4005741EA0C0107EA0232F1
:1015E0001A43C16102622868C16921F44061C16186
:1015F0002868C169A26841EA0221C16181E710B58A
:10160000040003D094F83D0010B107E0012010BDA4
:10161000002084F83C00204600F01EF8022084F8E8
:101620003D00211D206801F0E9FA012084F8460000
:1016300084F83E0084F83F0084F8400084F84100BC
:1016400084F8420084F8430084F8440084F845009C
:1016500084F83D00002010BD7047000010B504461E
:1016600051B104290DD0082910D094F8410094F804
:101670004520012811D10EE094F83E0094F8422054
:10168000F7E794F83F0094F84320F2E794F840001D
:1016900094F84420EDE7012A01D0012010BD02207A
:1016A00019B3042926D0082929D084F8410084F8E8
:1016B00045000122206801F0DDFA134920688842C4
:1016C00008D0B0F1804F05D01049884202D01049AF
:1016D000884204D1816801F00701062903D001681E
:1016E00041F001010160002010BD84F83E0084F843
:1016F0004200DEE784F83F0084F84300D9E784F82D
:10170000400084F84400D4E7002C0140000400406D
:101710000008004030B504460D460068002201F084
:10172000A9FA2068016A41F21112114207D1016A37
:101730009210114203D1016821F0010101600122E0
:1017400045B1042D09D0082D0AD004F8412F22718B
:10175000002030BD04F83E2FF9E704F83F2FF6E7EC
:1017600004F8402FF3E72DE9F04104460068C6680D
:1017700005694FF00007A90713D5B10711D5F91E68
:10178000016101202077206880698007204602D00F
:10179000FFF7A2FE04E000F0A5F8204600F037F9BC
:1017A0002777680716D5700714D521686FF00400F5
:1017B0000861022020772068806910F4407F20466D
:1017C00002D0FFF789FE04E000F08CF8204600F01C
:1017D0001EF92777280715D5300713D521686FF034
:1017E00008000861042020772068C069800720462F
:1017F00002D0FFF771FE04E000F074F8204600F01C
:1018000006F92777E80616D5F00614D521686FF09B
:1018100010000861082020772068C06910F4407F1C
:10182000204602D0FFF758FE04E000F05BF82046A7
:1018300000F0EDF82777E80708D0F00706D0216818
:101840006FF001000861204600F030F9280608D545
:10185000300606D521686FF0800008612046FFF74A
:10186000C5FC680608D5700606D521686FF04000F3
:101870000861204600F034F9A8060AD5B00608D55C
:1018800021686FF0200008612046BDE8F041FFF7B5
:10189000AEBCBDE8F081000000B585B0002100912C
:1018A00001910291039100680B49884211D10B48C4
:1018B000816941F0080181618069694600F0080092
:1018C0000490032000900220019003900448FFF749
:1018D00075F805B000BD0000000400400010024093
:1018E000000C0140704770B5044690F83C0000269B
:1018F0000D4601280FD0012084F83C006AB1042A6B
:101900001DD0082A2FD00C2A3FD00126002084F8B1
:101910003C00304670BD022070BD206801F0CAF95D
:101920002068816941F0080181612068816921F0A6
:1019300004018161206881692A69114311E02068EE
:1019400001F0E0F92068816941F40061816120685B
:10195000816921F480618161206881692A6941EA95
:1019600002218161D2E7206801F0F8F92068C1699D
:1019700041F00801C1612068C16921F00401C16121
:101980002068C1692A69114311E0206801F012FA48
:101990002068C16941F40061C1612068C16921F416
:1019A0008061C1612068C1692A6941EA0221C1617F
:1019B000ACE710B5040003D094F83D0010B107E087
:1019C000012010BD002084F83C00204600F01EF8E5
:1019D000022084F83D00211D206801F00FF901204C
:1019E00084F8460084F83E0084F83F0084F8400004
:1019F00084F8410084F8420084F8430084F84400ED
:101A000084F8450084F83D00002010BD7047704701
:101A100010B50446022249B104290ED0082913D07A
:101A200094F84100012816D0012010BD94F83E0022
:101A30000128F9D184F83E200FE094F83F000128F6
:101A4000F2D184F83F2008E094F840000128EBD15F
:101A500084F8402001E084F841200122206801F050
:101A600009F90F492068884203D1426C42F40042D0
:101A700042642068884208D0B0F1804F05D00949FF
:101A8000884202D00849884204D1816801F00701E8
:101A9000062903D0016841F001010160002010BD5A
:101AA000002C014000040040000800400A49884220
:101AB00010D10A48017900290CD00168002909D009
:101AC0000168491E01600168002903D101710248C3
:101AD000FFF77CBC7047000024010020200000209C
:101AE0007047704770470000F8B501680446086801
:101AF000CA684B6910F00F0F4FF0000559D003F082
:101B0000010602F49077374365D0C10705D0D105AF
:101B100003D5616C41F001016164410705D5D90726
:101B200003D0616C41F002016164810705D5D907DA
:101B300003D0616C41F004016164010707D502F034
:101B40002001314303D0616C41F008016164616C94
:101B500000293AD0800604D5900602D5204601F02F
:101B600032FA20684069616CC0F38010090700D424
:101B700060B3204601F000FA20684069400621D594
:101B80002068143050E8001F21F0400140E80012A6
:101B9000002AF5D1E06BA8B16D494163E06BFEF717
:101BA000AFFE002811D0E06B416B01B0BDE8F04002
:101BB000084783060FD593060DD52046BDE8F840AB
:101BC00001F001BA2046FFF78DFFF8BD2046FFF770
:101BD00089FF6564F8BD266B2023012E7CD1C606E3
:101BE0007AD5D60678D508684868009048694FF0DD
:101BF0000206400640D5E16B086840680004000C0E
:101C0000E8D0A28D8242E5D9E085886920282DD0D0
:101C100020680C3050E8001F21F4807140E8001269
:101C2000002AF5D12068143050E8001F21F001018E
:101C300040E80012002AF5D12068143050E8001F57
:101C400021F0400140E80012002AF5D184F842302A
:101C5000256320680C3050E8001F21F0100140E897
:101C60000012002AF5D1E06BFEF727FE6663A08D17
:101C7000E18D401A81B22AE0A08DE18D401A81B237
:101C8000E08D0028A6D00029A4D022680C3252E8AA
:101C9000000F20F4907042E80007002FF5D1206873
:101CA000143050E8002F22F0010240E80027002FF6
:101CB000F5D184F84230256320680C3050E8002FBD
:101CC00022F0100240E80023002BF5D16663204685
:101CD000FFF707FFF8BDFFE705062BD5150629D549
:101CE00094F841002128F5D1A068B0F5805F01D1BA
:101CF0002069B0B1206A411C2162216800784860E7
:101D0000E08C401E0004000CE084E3D12068C16830
:101D100021F08001C1602068C16841F04001C160CC
:101D2000D8E7206A0088C0F308004860206A801C59
:101D30002062E5E74006CDD55006CBD5CA682046DF
:101D400022F04002CA6084F8413000F01DF9C1E77A
:101D5000692F000870B5040004D094F841000025F4
:101D600010B106E0012070BD84F84050204600F01C
:101D700023F8242084F841002068C16821F4005130
:101D8000C160204601F080F92068016921F490418A
:101D900001612068416921F02A0141612068C16820
:101DA00041F40051C1606564202084F8410084F84A
:101DB00042006563002070BDF0B585B0002400943A
:101DC0000194029403940368394F02203949032295
:101DD000394D4602BB421AD18B6943F480438B6173
:101DE0008B6903F4804304938B6943F004038B6194
:101DF0008969039201F0040104910102CDE9001008
:101E000069462846FEF7DAFDCDE900644AE02B4F2B
:101E1000BB4229D1CB6943F40033CB61CB6903F4D6
:101E2000003304938B6943F004038B618969039247
:101E300001F0040104910421CDE90010694628460F
:101E4000FEF7BCFD0820CDE900046946284602944F
:101E5000FEF7B4FD002211462620FEF715FF2620CE
:101E6000FEF704FF05B0F0BD154DAB42FAD1CB69CA
:101E700043F48023CB61CB6903F4802304938B6903
:101E800043F008038B6189690E4D01F00801CDE92B
:101E90000321CDE9006069462846FEF78FFDE8146E
:101EA000CDE90004694628460294FEF787FDD9E78C
:101EB000003801400010024000080140004400408A
:101EC00000480040000C014090F84230202B01D027
:101ED0000220704721B11AB10023036301F030B929
:101EE0000120704701F062BE2DE9F843044690F8E6
:101EF0004100984616460D46202802D00220BDE833
:101F0000F88385B17EB100206064212084F841000F
:101F1000FEF74EFEA6848146E684A0682027B0F531
:101F2000805F02D003E00120E9E7206910B12E466E
:101F300000250EE000260CE08021204601F01BF970
:101F4000A8B9C6B116F8010B21684860E08C401EA4
:101F5000E084E08C4B464FF00002CDF80080002872
:101F6000EAD14FF04001204601F005F940B184F874
:101F700041700320C3E735F8020BC0F30800E3E724
:101F800084F841700020BAE77047FEE770B50C4D49
:101F90004FF48046002431462846FEF7FFFD012815
:101FA0000CD11420FEF7F8FC31462846FEF7F6FD6A
:101FB0000128F9D01420FEF7EFFC0124204670BD63
:101FC000000C0140012220210148FEF7ECBD000079
:101FD00000080140002220210148FEF7E4BD000076
:101FE0000008014008B54FF400411C48FEF7D6FD3B
:101FF0001B4910B10879C0B123E00120087102200B
:10200000086018490020096848621648FFF7B2F9CD
:10201000134815A10838FEF7ECF8114812A1401F2B
:10202000FEF7E7F800F024FA0BE00D480FA108389E
:10203000FEF7DFF80A480DA1401FFEF7DAF800F0BE
:102040000BFA07480AA30838009008222021002034
:1020500000F0F7FABDE8084000F004BC00100140B1
:102060002000002024010020D3D00000CEDE00009C
:10207000D2ECB3A3C9F9D2F43A2573202020202052
:102080002020202020202020202000002DE9F043C7
:1020900085B000242F480094019402940394816930
:1020A00041F010018161816901F0100104918169A1
:1020B00041F020018161816901F020010491816971
:1020C00041F004018161816901F004010491816999
:1020D00041F0080181618069DFF87C8000F0080030
:1020E0000490002201214046FEF75DFD01222021DF
:1020F0004046FEF758FDDFF864904FF44077002229
:1021000039464846FEF74FFD4FF40040CDE9000444
:10211000694613480294FEF751FC21200126CDE9BF
:102120000006022569464046CDE90245FEF746FC19
:1021300068038DE8310069464846FEF73FFCCDE96B
:10214000007669464846CDE90245FEF737FC05B002
:10215000BDE8F0830010024000080140000C01407F
:102160000010014010B58AB0002429480494059459
:1021700006940794089409940094019402942349C6
:10218000039401604721C0E901144FF6FF71C0E9D3
:1021900003148021C0E90541FFF75EF808B1FEF79E
:1021A0008AFB4FF48050049004A91948FFF726F9E0
:1021B00008B1FEF780FB1648FFF721FA08B1FEF7D9
:1021C0007AFB089408A912480994FFF711F808B19E
:1021D000FEF771FB0120CDE9004002940022694620
:1021E0000B480394FFF779F908B1FEF764FB02206E
:1021F00000900190042269460548FFF76EF9002817
:1022000001D0FEF758FB0AB010BD0000002C0140C1
:102210004C00002010B586B00024174800940194AB
:102220000294039404944FF080410594016041F6B8
:102230001F41C0E9011442F20F71C0E90314846127
:10224000FFF70AF808B1FEF736FB4FF48050009014
:1022500069460948FFF7D2F808B1FEF72CFB049451
:1022600004A905480594FEF7C3FF002801D0FEF736
:1022700022FB06B010BD00009400002010B58EB007
:1022800000240794089409940A940B941C2168462E
:102290000C94FDF770FF2248204901604721C0E9F6
:1022A00001146321C0E903148461FEF7D5FF08B16E
:1022B000FEF701FB4FF48050079007A91848FFF77D
:1022C0009DF808B1FEF7F7FA1548FFF772FB08B161
:1022D000FEF7F1FA0B940BA911480C94FEF788FF56
:1022E00008B1FEF7E8FA6020CDE900040294082264
:1022F00069460B480494FFF7F6FA08B1FEF7DBFADB
:102300000C2269460648FFF7EEFA08B1FEF7D3FA49
:102310000348FFF7C1FA0EB010BD000000040040F2
:10232000DC00002010B586B000241748009401940A
:1023300002940394049413490594016041F61F41EB
:10234000C0E9011442F20F71C0E903148461FEF781
:1023500083FF08B1FEF7AFFA4FF480500090694652
:102360000948FFF74BF808B1FEF7A5FA049404A951
:1023700005480594FEF73CFF002801D0FEF79BFAC4
:1023800006B010BD00080040240100200C4810B524
:102390000A4901604FF4E1314160002181600C2263
:1023A000C160C0E904128161C161FFF7D3FC00285C
:1023B00003D0BDE81040FEF77EBA10BD00380140E2
:1023C0006C0100200C4810B50A4901604FF4165109
:1023D0004160002181600C22C160C0E9041281616A
:1023E000C161FFF7B7FC002803D0BDE81040FEF73D
:1023F00062BA10BD00440040B40100200C4810B582
:102400000A4901604FF4E1314160002181600C22F2
:10241000C160C0E904128161C161FFF79BFC002823
:1024200003D0BDE81040FEF746BA10BD004800409A
:10243000FC010020FEE7000010B508210448FFF76A
:10244000E7FA04490020087001490968C86310BD13
:10245000DC00002028000020034900200870034908
:102460000968C8637047000028000020DC000020D5
:10247000034901200870034964200968C863704754
:1024800028000020DC000020FEE7000010B500213D
:10249000074C0A46002004EBC1131A54401CC0B27A
:1024A0008028FAD3491CC9B20829F3D310BD000013
:1024B00081040020F0B50B4424E0044685181DE09B
:1024C0007F2C19D8002917DB3F2915DCCE1701EB2B
:1024D00056764FEAE60C0D4F26F0070607EBCC17B1
:1024E0002744A1EB060E97F800C0012606FA0EF667
:1024F0002CEA060C87F800C0641C24B2A542DFDC7D
:10250000491C09B28B42D8DCF0BD000081040020D8
:1025100010B500204FF47A720021491C9142FCD37F
:10252000401C9042F8D3012000F0B0F9BDE8104003
:10253000012000F0B3B970B500240646802525FAC5
:1025400004F0304000D0012000F0A8F9012000F094
:102550009DF9002000F09AF9641CE4B2082CEED337
:10256000012000F093F9BDE87040002000F08EB922
:1025700010B5012000F092F9012000F087F9002049
:1025800000F08CF9BDE81040002000F07FB910B5D4
:10259000002000F083F9012000F078F9BDE8104038
:1025A000012000F07BB910B5FFF7B2FFAE2000F0BC
:1025B0007DF9D52000F07AF9802000F077F9A82085
:1025C00000F074F93F2000F071F9D32000F06EF9AB
:1025D000002000F06BF9402000F068F9A12000F025
:1025E00065F9C82000F062F9DA2000F05FF91220E6
:1025F00000F05CF9812000F059F9CF2000F056F985
:10260000D92000F053F9F12000F050F9DB2000F060
:102610004DF9302000F04AF9A42000F047F9A62037
:1026200000F044F98D2000F041F9142000F03EF94B
:10263000AF2000F03BF9FFF729FFBDE8104000F0A4
:1026400011B90FB470B5C0B014460D46064648AA7D
:102650006846479900F00EFE23466A4629463046F2
:1026600000F092F840B070BC5DF814FB10B50C4659
:1026700040F0B00000F01AF9102040EA141000F009
:1026800015F904F00F00BDE8104000F00FB900008C
:1026900008B5082B0DD0062B0AD10A4B02EB4202DB
:1026A00003EB4202C03A00920823062200F00EF823
:1026B00008BD054B03EB0212A2F500721023009235
:1026C0000822F3E7EE450008FE3F00082DE9F04F31
:1026D0001F4616460D4682460024FFF7EBFE7F1E7E
:1026E000F81707EB50700121DFF898B001EBE00715
:1026F00043E000203DE000BF0AEB00037F2B36D80B
:10270000E91705EB5171CA1021F00701691A002D74
:1027100003DA521E083112B209B202EB0409B9F110
:10272000070F0ED8099A04FB06F802440BEBC91EEA
:1027300018F802201EF803C08A404CEA020C0EF87A
:1027400003C009F10102072A11D80BEBC91202EBF1
:102750000308099A04FB06FC024498F880301CF830
:102760000220C1F10801CA40134388F88030401CA0
:10277000C0B2B042C0D3641CE4B2A742B9DCBDE829
:10278000F08F0000810400202DE9FF4F002583B069
:102790009B4690462C46AA46DFF8C09056E01006AD
:1027A0008DF8042005F101050DD40398ADB2204445
:1027B0008DF805A000B25B460499FFF769FF04EBB2
:1027C0000B0084B242E0A8B218F80010002941D0F2
:1027D000401C8DF8051085B28DF806A0002606E095
:1027E000384601A9FDF7F7FC68B1761CB6B2C6EB16
:1027F000C60000EB800101EB0900074618A1FDF7B8
:10280000EAFC0028ECD1BBF1080F03D0BBF1060FA6
:102810001CD111E0C6EBC60000EB800101EB090002
:10282000C01C009003981023204400B21A4604995B
:10283000FFF74CFF103408E003980623204400B251
:102840003F220499FFF724FFA41DA4B218F8052025
:10285000002AA4D107B0BDE8F08F00002848000886
:102860000000000070B5084D002400212046FFF74D
:10287000FDFE05EBC410802100F029F8641CE4B2D1
:10288000082CF2D370BD00008104002002464FF4F2
:1028900080710148FEF787B9000C014002464FF4F1
:1028A00000710148FEF77FB9000C014010B50446E5
:1028B000FFF75EFE7820FFF73EFE0020FFF73BFEAD
:1028C0002046FFF738FEBDE81040FFF760BE70B548
:1028D0000D460646FFF74CFE7820FFF72CFE402001
:1028E000FFF729FE002404E0305DFFF724FE641C9E
:1028F000E4B2AC42F8D3BDE87040FFF748BE704781
:1029000070B50C46054612A1144800F017F914A141
:10291000124800F013F916A1104800F00FF92A46EA
:1029200018A10E4800F00AF91E20FEF735F82046DF
:10293000FDF74AFC82B2642321460848FFF7D4FA27
:10294000BDE870406423012212490448FFF7CCBA65
:1029500041542B434D47463D310000006C0100209F
:1029600041542B435343533D2247534D2200000013
:1029700041542B43534D503D31372C3136372C3099
:102980002C30000041542B434D47533D22257322E8
:1029900000000000340000202DE9FC414D4C0025D2
:1029A000206845622168E81E086121686FF0040014
:1029B000086129462046FEF751FE04212046FEF715
:1029C0004DFE454E012211463046FEF7ECF800213F
:1029D000491C0A29FCD3002201213046FEF7E3F806
:1029E0000027FEF7E5F800F132060AE021680869E1
:1029F0000969C0F34000C1F3800110B109B101279A
:102A000003E0FEF7D5F8B042F0D300213148FEF7DD
:102A100081FE04212F48FEF77DFE304EBFB32168B2
:102A2000486B896B80B289B2081AFDF7B1FD2C4959
:102A3000FDF7E8FB2B49FDF7E5FB4FF0FF31FDF714
:102A400013FC294B01210222284C7060984206DCBD
:102A50002078022814D022702572616008E0244B8F
:102A60009842207808DC01280AD021702572626023
:102A70002048FEF77FFC03E010B1257025726560E9
:102A8000207828B1012820D0022807D11DE005E0D8
:102A9000FFF798FA18A11148FDF7ABFB7068FDF736
:102AA0008DFDCDE90001002114A308220846FFF79F
:102AB000C8FD0A48009018A3082210210020FFF743
:102AC000C0FDBDE8FC41FFF7CDBEFFF783FA19A1B9
:102AD000E1E700004C000020000801402C0000202D
:102AE000BD3786350000AA43CDCCCC3D4402002042
:102AF000CDCC4C3E94000020CEDE0000BEE0C0EB0A
:102B00003A252E32666D20202020202020202020F3
:102B10002020202020000000B7E4C3F9C6F73A25A2
:102B20007320202020202020202020202020202052
:102B300000000000D3D00000704700000FB48021D7
:102B400010B5044604AB0C48039A00F07DFB0A481C
:102B5000FDF73AFB82B2642307492046FFF7C4F928
:102B60006423022205A12046FFF7BEF91E20FDF7CF
:102B700013FF10BC5DF814FB500200200D0A00008A
:102B8000FEF71CB830B58FB028216846FDF7F3FA80
:102B900014210AA8FDF7EFFA01210804CDE900107D
:102BA0000024029402250491CDE907504FF4E0106F
:102BB00009906846FEF776F908B172B6FEE70F2075
:102BC000CDE90A054FF48060CDE90C4002210AA846
:102BD0000E94FEF78BF8002801D072B6FEE70FB016
:102BE00030BD70470148FEF7BEBD000094000020D4
:102BF0000148FEF7B8BD000024010020F0B50268CE
:102C0000194B1A4C1A4D4FF08047984205D0B842E4
:102C100003D0A04201D0A84203D122F070064A6836
:102C20003243984205D0B84203D0A04201D0A84216
:102C300003D122F44074CA6822434C6922F0800216
:102C4000224302608A68C2620A688262984201D1A5
:102C500009690163012141610169C90703D0016963
:102C600021F001010161F0BD002C01400004004091
:102C70000008004010B501F01F030121046A9940CB
:102C80008C430462016A9A401143016210BD10B581
:102C9000846842EA032224F47F440A432243826088
:102CA00010BD826822F070020A4342F00701816081
:102CB0007047000030B5036A026A22F00102026226
:102CC0004268846924F073050C682C4323F00205E4
:102CD0008B682B430A4DA8420BD123F00805CB6823
:102CE00022F440722B434D6923F0040315438A6993
:102CF0002A434260846149684163036230BD000039
:102D0000002C014030B5026A036A23F0100303620D
:102D1000436884690D6824F4E64444EA05248D6818
:102D200022F0200242EA05120B4DA8420ED1CD68D6
:102D300022F0800242EA05124D6923F4406343EA1F
:102D400085038D6922F0400243EA85034360846174
:102D500049688163026230BD002C014030B5036ACE
:102D6000026A22F4807202624268C46923F400732A
:102D700024F073050C682C438D6843EA05230C4D41
:102D8000A8420ED1CD6823F4006343EA05234D69C0
:102D900022F4405242EA05128D6923F4806342EA2C
:102DA00005124260C4614968C163036230BD00001E
:102DB000002C014030B5046A026A22F4805202629B
:102DC0004268C3690D6823F4E64343EA05238D682E
:102DD00024F4005444EA0534064DA84204D14D6958
:102DE00022F4804242EA85124260C361496801646C
:102DF000046230BD002C014010B5036A046A24F05F
:102E000001040462846924F0F00444EA021423F00B
:102E10000A020A438461026210BD000070B5056AAF
:102E2000046A24F00104046284690F4EB04208D0A1
:102E3000B0F1804F05D00D4EB04202D00C4EB042E2
:102E400003D124F00304144301E044F001041A0701
:102E500024F0F00444EA126225F00A0301F00A01AA
:102E600019438261016270BD002C014000040040E2
:102E70000008004010B5036A046A24F010040462DC
:102E8000846923F0A00324F4704444EA023243EA44
:102E900001118261016210BD30B5046A056A25F036
:102EA00010050562856925F4407545EA022222F481
:102EB00070454FF6FF7202EA033224F0A0032A4362
:102EC000A02404EA011119438261016230BD0000AF
:102ED0007FB5134C94F8500008B100F04DFF94F802
:102EE000780080B10F4D6868FDF768FB04460E4618
:102EF0002868FDF763FB8DE853000BA2642110489E
:102F000000F08AF904E064220EA10D48FDF750F9A3
:102F100004B00B49BDE870401248FFF7F1BC000057
:102F20004003002034030020534F532048656C7049
:102F300021204E3A252E32662C453A252E32660047
:102F4000D0020020534F532048656C7021204C6FF5
:102F5000636174696F6E20756E617661696C616220
:102F60006C6500003500002010B5406A0021C18565
:102F7000C184FEF7B7FD10BD01680C3151E8002F88
:102F800022F4907241E80023002BF5D1016814313E
:102F900051E8002F22F0010241E80023002BF5D177
:102FA000016B012909D101680C3151E8002F22F091
:102FB000100241E80023002BF5D1202180F84210B7
:102FC00000210163704708B590F84210222901D012
:102FD000022008BD82684FF480539A4201D10169F2
:102FE00021B1816A9A421BD04AB10AE00268816A23
:102FF0005268C2F308020A80816A891C08E00269EB
:1030000072B10268526802F07F020A70816A491C3C
:103010008162C18D491E0904090CC18503D01BE0E2
:1030200002685268F1E70168CA6822F02002CA60AB
:103030000168CA6822F48072CA6001684A6922F095
:1030400001024A61202180F8421000214163026B95
:10305000012A03D0FEF746FF002008BD0163016886
:103060000C3151E8002F22F0100241E80023002B20
:10307000F5D101680A68D20602D50A68496800914C
:10308000818DFEF72EFDE7E770B504460068016903
:10309000E26821F44051114301612169A0680843AD
:1030A000616908432168CA6841F20C639A4302438C
:1030B000CA6020684169A26921F4407111434161ED
:1030C0001E492068884202D1FDF7B6FE01E0FDF7F7
:1030D000A3FE00EBC00101EB0012606864218000D8
:1030E000B2FBF0F3B3FBF1F36FF018067343B2FBDE
:1030F000F0F5B2FBF0F605EB8305322303EB051583
:10310000B5FBF1F5B6FBF1F605F0F00505EB06159C
:10311000B2FBF0F6B2FBF0F0B0FBF1F06FF018028A
:10312000504306EB800003EB0010B0FBF1F0216888
:1031300000F00F002844886070BD00000038014096
:1031400081628285C28500214164222180F842107B
:10315000016921B10168CA6842F48072CA600168DD
:103160004A6942F001024A610068C16841F02001E9
:10317000C160002070472DE9F843984617460D4678
:103180000446089E24E0701C22D0FDF711FDA0EB40
:103190000800B0421AD8CEB12068C168490717D5D7
:1031A000802D15D0402D13D00168C94309070FD4D5
:1031B00001680025406800902046FFF7DDFE0820EA
:1031C000606484F840500120BDE8F8830320FBE7E9
:1031D0002068006835EA000004D00020B842D2D050
:1031E0000020F1E70120F9E70148FEF77DBC00006F
:1031F000B4010020FEE700000FB4054B10B503A991
:10320000044A029800F02AF910BC5DF814FB000093
:10321000B53C0008480000200FB41CB50246002051
:1032200007AC00290BD0491ECDE90021054B6A46A9
:103230002146069800F012F9009A002111701CBC7A
:103240005DF814FB8B3B00087CB5044600201D464E
:10325000164600290BD0491ECDE90041044B6A46B1
:103260002946304600F0FAF8009A002111707CBD22
:103270008B3B000837B514460846064B6A46214684
:1032800000F0ECF804466946002000F089FC204676
:103290003EBD0000A13B00080907090E002804DB21
:1032A00000F1E02080F80014704700F00F0000F1FA
:1032B000E02080F8141D704702E008C8121F08C102
:1032C000002AFAD170477047002001E001C1121FA7
:1032D000002AFBD1704700002DE9FF5F82B000217A
:1032E000DDE90430020DDDF840B0034318D044F6A8
:1032F0001050A2F2FF3242431514119801281FD03A
:10330000A5EB0B00401C5FEA000A4FF000064E4F91
:10331000DFF83891B046504615D5CAF1000413E0E5
:10332000119801244AA3012801D16FEA0B010298E8
:10333000119AC0E90031C0E9024206B0BDE8F09F31
:10334000CBF10000DFE704460021404A491842EB78
:103350000450CDE9001012E0E00707D032463B46AA
:1033600040464946FDF733F88046894632463B469B
:1033700010461946FDF72BF806460F466410002C40
:10338000EAD1DDE90401DDE90023BAF1000F06DA34
:10339000FDF71DF842464B46FDF719F805E0FDF72D
:1033A00088F842464B46FDF784F804460E46002254
:1033B000284BFDF717F903D84FF0FF30014607E01F
:1033C0000022254B20463146FCF75AFFFDF73AFA1A
:1033D000102409E0002C0ADB0A220023FDF74CF937
:1033E000039B30321A55641E50EA0102F2D1641C6C
:1033F000039AC4F111031444119A012A03D0012243
:1034000008430DD10AE0084304D000204FF0110B0F
:10341000119072E7A3EB0B056D1E0DE05B4504DD1B
:103420004FF0000205F1010504E003DA4FF000025D
:10343000A5F10105002AECD002981199C0E90231EA
:10344000C0E9004579E70000000014400000F03FAB
:10345000300000000000F0430000E03F2DE9FF4F86
:1034600095B09B468946064600250FE2252877D170
:1034700000242746F84A0121059400E0044316F889
:10348000013F203B01FA03F01042F7D130782A289F
:1034900011D06FF02F033078A0F13002092A16D82E
:1034A000059A44F0020402EB820203EB420210444C
:1034B000761C0590EFE759F8042B0592002A03DAF1
:1034C000504244F40054059044F00204761C3078D5
:1034D0002E2816D116F8010F44F004042A280DD026
:1034E0006FF02F023078A0F13003092B09D807EBD9
:1034F000870302EB4303C718761CF3E759F8047BF4
:10350000761C30786C280FD006DC4C2817D0682841
:103510000DD06A2814D104E0742810D07A280FD175
:103520000DE044F400140AE044F4801401E044F493
:1035300040147278824202D104F58014761C761C05
:10354000307866280BD013DC582877D009DC0028A7
:1035500075D04528F6D04628F4D047281AD19DE1E9
:1035600018E0632835D0642879D0652812D195E118
:10357000702873D008DC6728F1D069286FD06E28D6
:103580000DD06F2806D1B5E073282CD0752875D0E2
:10359000782874D05A46179990476D1C75E1C4F38A
:1035A0000250022809D003280DD0D9F800100428B1
:1035B0000DD00D6009F1040967E1D9F80010EA1790
:1035C000C1E90052F6E7D9F800100D80F2E70D705E
:1035D000F0E719F8041B8DF8001000208DF80100A9
:1035E000EA46012003E059F804AB4FF0FF306107D1
:1035F0004FF0000102D40DE008F101018846B94204
:103600000FDA8045F8DB1AF808100029F4D108E039
:1036100008F1010188468142FADB1AF808100029F6
:10362000F6D105985B46A0EB080721463846179A65
:1036300000F094FA284400EB080507E04DE029E18A
:103640000DE01AF8010B5A4617999047B8F1010896
:10365000F7D25B4621463846179A13E142E00A2228
:103660000092C4F302524FF0000A022A08D059F81F
:1036700004CB032A4FEAEC710AD00DE029E02AE0DE
:1036800009F1070121F00702F2E802C1914609E0C1
:103690000FFA8CFC4FEAEC71042A03D14FFA8CFC30
:1036A0004FEAEC71002907DA0A460021DCF1000C30
:1036B00061EB02012D2202E0220504D52B228DF8B8
:1036C0000420012203E0E20701D02022F7E7904620
:1036D00059E00A2102E010220DE010214FF0000A0B
:1036E00000910BE010224FF0000A44F00404082778
:1036F000009203E008224FF0000A0092C4F3025245
:10370000022A05D059F804CB0021032A08D009E089
:1037100009F1070121F00702F2E802C1914605E034
:103720001FFA8CFC042A01D10CF0FF0C4FF00008AA
:10373000220728D5702806D0009B83F0100353EA97
:103740000A0305D00EE040228DF80420012208E093
:103750005CEA010206D030228DF804208DF80500C5
:1037600002229046009B83F0080353EA0A030AD121
:103770005CEA010201D1620705D530228DF80420F0
:103780004FF001087F1E582804D034A003900EA8E3
:1037900002900DE036A0F9E753466046009AFCF728
:1037A0006BFF84460398825C0298401E0290027070
:1037B0005CEA0100F0D1029806A9081A00F1200A7B
:1037C000600702D524F4803400E00127574502DD6C
:1037D000A7EB0A0000E0002000EB0A01009005982A
:1037E0004144401A0590E00306D45B462146179AEF
:1037F000059800F0B3F90544002706E001A85A46F1
:10380000C05D179990476D1C7F1C4745F6DBE003B0
:103810000CD55B462146179A059800F09FF90544A0
:1038200004E030205A46179990476D1C0099481EB5
:1038300000900029F5DC08E0029802995A460078C9
:10384000491C0291179990476D1CBAF10001AAF129
:10385000010AF1DC65E10000092801003031323352
:1038600034353637383961626364656600000000BC
:1038700030313233343536373839414243444546A6
:103880000000000000F058F90544761C307800284C
:103890007FF4ECAD19B02846BDE8F08F620700D484
:1038A000062709F1070222F0070CFCE80223E14693
:1038B00003F000485FEA080C02D00FF2702C0DE014
:1038C0005FEA045C02D50FF2682C07E05FEAC47C73
:1038D00002D00FF2602C01E0AFF2700C4FF0FF3815
:1038E00023F00043CDF850C065280CD006DC4528F5
:1038F00009D046281DD047283DD13DE0662818D084
:1039000067287ED138E00021112F01DB112000E073
:10391000781CCDE9000106A90EA8FFF7DDFCDDE962
:103920000F010E9A03910021009207F1010A049100
:103930004DE04FF000400097CDE9011006A90EA818
:10394000FFF7CAFCDDE90F0203920E9B11990022DA
:10395000DDF80CA00093049211B9791C00EB010A68
:10396000B7EB0A0004D4C0F1FF3007F1010A04905C
:10397000AAEB0700019044E0012F00DA01270021A3
:10398000112F01DD112000E03846CDE9000106A924
:103990000EA8FFF7A1FCDDE90F010E9A03910021AB
:1039A00004910092BA4621070CD40399514500DADC
:1039B0008A46BAF1010F05DD009AAAF10101515CB6
:1039C000302908D0B84202DA10F1040F06DA0121DA
:1039D000CDE9011015E0AAF10101E9E7002805DCB5
:1039E000049901440491AAEB000102E0411C5145F5
:1039F00000DD8A460499401A401C01904FF00040B7
:103A00000290200704D40198504501DBCDF80480D2
:103A100000208DF84F0002980DF14F07B0F1004FD4
:103A200025D02B200E9002984FF0020800280CDAC7
:103A3000404202902D200E9007E00A210298FCF7E8
:103A400005FE3031029007F8011DB8F10001A8F120
:103A50000108F2DC02980028EFD1791E0E98087058
:103A6000307800F0200040F0450007F8020D12A861
:103A7000C01B00F107081498007800B1012000EB8A
:103A80000A01019801EBE07105984144401A401E7B
:103A90000590E00306D45B462146179A059800F08E
:103AA0005DF805441498007818B15A461799904764
:103AB0006D1CE00324D55B462146179A059800F05B
:103AC0004DF805441CE00498002807DBDDE90301FC
:103AD000884203DD0098405C179901E01799302077
:103AE0005A469047049805F10105401C049001983E
:103AF000401E019004D12E205A46179990476D1C04
:103B0000BAF10001AAF1010ADDDC05E017F8010BAA
:103B10005A46179990476D1CB8F10001A8F10108A9
:103B2000F4DC5B462146179A0598ABE62D000000B1
:103B30002B000000200000002DE9F0410446002584
:103B40001E461746880404D405E039462020B047B5
:103B50006D1C641EF9D52846BDE8F0812DE9F041C1
:103B6000044600251E469046C80301D5302700E0D4
:103B70002027880404D505E041463846B0476D1C2F
:103B8000641EF9D52846BDE8F0814A68002A06D0AF
:103B90000A68531C0B6010704868401E48607047EC
:103BA0000A68531C0B6010707047000070B5006805
:103BB0001D49884237D11D4C00262178242900D187
:103BC00066801B4862888154521C95B265800278D9
:103BD000242A07D102794D2A04D14079432801D102
:103BE0000A290AD0C82D01D3C8206080BDE87040E2
:103BF00001220E490F48FEF767B90D485021793868
:103C0000FCF7B9FA0A492A46A1F17900FCF79AFAB9
:103C100007490120793981F850006680C82104489D
:103C2000FCF7A9FAE2E770BD004400404200002022
:103C3000B9030020B401002010B500F00BF8BDE876
:103C40001040012201490248FEF73EB9420000201F
:103C5000B401002010B510480024502100F8504F46
:103C6000447080F828400C48FCF785FA0A480C3864
:103C700040F85E4F446004818472C0F80B40C0F885
:103C80000F40A0F813404475C4828461C46104628B
:103C900001487430448010BD400300200446214692
:103CA00001A0FFF7A9FAFAE74552524F5225640DD9
:103CB0000A00000038B504468DF80000694603206C
:103CC000ABBE204638BD000008B5FCF77FFFFEF70D
:103CD00059FFFEF7DBF9FEF745FAFEF723FBFEF787
:103CE000CDFAFEF753FBFEF795FAFEF76BFBFEF7F6
:103CF00085FBFCF7D3FDFEF79FFBFEF754FCFFF7B7
:103D00009BFF124E104D741EFEF746FEFEF76AF939
:103D100000F032F895F8780008B10DA100E00EA18E
:103D20000A48FCF766FA0EA308223021002000960C
:103D3000FEF787FCFEF796FDFEF728F920700128B4
:103D4000E2D1FFF7C5F8DFE74003002001000020C3
:103D5000B3C9B9A600000000CAA7B0DC000000008B
:103D6000B6A8CEBB25732020202020202020202094
:103D700020202020200000002DE9F84F9148002548
:103D80002E4690F850102F46A84600297DD0AB460D
:103D9000824680F850B00FE075B1401C81468AA180
:103DA000FCF7F4F9040060D0072D18D2DFE805F025
:103DB000170B1122282E340083A18248FCF7E6F964
:103DC00080BB012052E07F48A4EB090249465230F3
:103DD00003E0A4EB090249466846FCF7B3F9012267
:103DE0008AF851209DF800302046412B1BD0562BDD
:103DF0001ED11BE07348A4EB090249465D30ECE795
:103E00007048A4EB090249466830E6E76D48A4EB28
:103E1000090249466A30E0E76A48A4EB09024946CC
:103E20007630DAE704E08AF8782001E08AF878B0A2
:103E30006D1CEDB2062DAFD99AF8510054460028FA
:103E400023D094F8780000281FD0DFF878A194F8E8
:103E50006810AAF10C0A00208AF8081094F876106D
:103E60008AF809104FF6FF7504E00220FFF716FFED
:103E700002280BD2221806EB860105EA410192F8CE
:103E80005D20303911448EB21DE098E004280CD238
:103E900004EB000207EB870105EA410192F85D207F
:103EA000A1F1300111448FB20DE00CD009280AD2E3
:103EB000221808EB880105EA410192F85D203039AB
:103EC00011441FFA81F8401CC0B20928D0D34046E3
:103ED000FCF767FBDFF8F4B000225B46FCF7E9FA79
:103EE000804689463846FCF75CFB42464B46FCF769
:103EF000C7F9DFF8DC9000224B46FCF7DAFA0746F8
:103F000088463046FCF74DFB3A464346FCF7B8F985
:103F1000FCF780FB0026CAF80000374631463046E1
:103F200001E003280AD2231806EB860205EA4202C2
:103F300093F86A30303A1A4496B21BE005280CD246
:103F400004EB000307EB870205EA420293F86A30AC
:103F5000A2F130021A4497B20CE00BD00A2809D221
:103F6000221801EB810105EA410192F86A203039FB
:103F7000114489B2401CC0B20A28D2D30846FCF7CB
:103F800010FB00225B46FCF794FA05460C463846C7
:103F9000FCF707FB2A462346FCF772F900224B4642
:103FA000FCF787FA05460C463046FCF7FAFA2A4633
:103FB0002346FCF765F9FCF72DFBCAF80400BDE8C1
:103FC000F88F0000400300202C0000000088C34050
:103FD00000004E40010202030405060708090A0B0F
:103FE0000C0D0E0F10100000000000000000010278
:103FF0000304060708090000000001020304000092
:1040000000000000000000000000000000000000B0
:1040100000F800000000000000333000000000162F
:104020000E00160E0000000000000000000040C05E
:104030007840C0784000043F04043F04040000704E
:1040400088FC08300000001820FF211E0000F00846
:10405000F000E018000000211C031E211E0000F0EB
:104060000888700000001E21232419272110000059
:1040700000160E000000000000000000000000001C
:1040800000E01804020000000007182040000002B1
:104090000418E00000000040201807000000404025
:1040A00080F0804040000202010F01020200000087
:1040B00000F0000000000101011F010101000000EB
:1040C00000000000000000B07000000000000000D0
:1040D00000000000000000010101010101010000D9
:1040E0000000000000000030300000000000000070
:1040F000000080601804006018060100000000E065
:1041000010080810E000000F102020100F00001011
:1041100010F8000000000020203F20200000007068
:104120000808088870000030282422213000003060
:104130000888884830000018202020110E00000058
:10414000C02010F8000000070424243F240000F8D9
:104150000888880808000019212020110E0000E0BE
:10416000108888180000000F112020110E00003860
:104170000808C83808000000003F00000000007078
:10418000880808887000001C222121221C0000E001
:1041900010080810E0000000312222110F0000007A
:1041A00000C0C0000000000000303000000000002F
:1041B00000C0C0000000000080B0700000000000DF
:1041C0008040201008000001020408102000404038
:1041D000404040404000040404040404040000087B
:1041E0001020408000000020100804020100007030
:1041F00048080808F0000000003036010000C03018
:10420000C828E810E0000718272423140B0000003A
:10421000C038E0000000203C23020227382008F8C4
:10422000888888700000203F202020110E00C030B8
:10423000080808083800071820202010080008F88F
:1042400008080810E000203F202020100F0008F888
:104250008888E8081000203F20202320180008F854
:104260008888E8081000203F200003000000C030CC
:1042700008080838000007182020221E020008F84D
:1042800008000008F808203F210101213F20000814
:1042900008F8080800000020203F2020000000004F
:1042A0000808F8080800C08080807F00000008F837
:1042B00088C028180800203F20012638200008F870
:1042C000080000000000203F20202020300008F8D7
:1042D000F800F8F80800203F003F003F200008F8F1
:1042E00030C00008F808203F200007183F00E01009
:1042F00008080810E0000F10202020100F0008F818
:1043000008080808F000203F210101010000E0102A
:1043100008080810E0000F18242438504F0008F84F
:10432000888888887000203F2000030C30200070AF
:104330008808080838000038202121221C001808AD
:1043400008F8080818000000203F2000000008F8C6
:1043500008000008F808001F202020201F0008780F
:10436000880000C83808000007380E010000F8086F
:1043700000F80008F800033C0700073C0300081899
:1043800068808068180820302C03032C30200838FF
:10439000C800C83808000000203F200000001008B6
:1043A0000808C838080020382621202018000000FE
:1043B00000FE020202000000007F40404000000CAE
:1043C00030C000000000000000010638C0000002FC
:1043D0000202FE000000004040407F00000000207C
:1043E0001008040810200000000000000000000079
:1043F00000000000000080808080808080800002BB
:1044000004080000000000000000000000000000A0
:104410008080808000000019242222223F2008F89A
:10442000008080000000003F112020110E000000DD
:10443000008080800000000E11202020110000006C
:1044400000808088F800000E112020103F2000001E
:10445000808080800000001F222222221300008022
:1044600080F0888888180020203F2020000000006D
:10447000808080808000006B94949493600008F8A2
:10448000008080800000203F210000203F2000802D
:104490009898000000000020203F2020000000002D
:1044A00000809898000000C08080807F000008F89D
:1044B000000080808000203F24022D302000000872
:1044C00008F8000000000020203F2020000080802D
:1044D000808080808000203F20003F20003F0080BF
:1044E00080008080000000203F2100203F2000004D
:1044F000808080800000001F202020201F008080FE
:1045000000808000000080FFA12020110E0000002C
:10451000008080808000000E112020A0FF8080801D
:1045200080008080800020203F21200001000000CA
:10453000808080808000003324242424190000809F
:1045400080E0808000000000001F202000008080AC
:10455000000000808000001F202020103F2080806D
:1045600080000080808000010E30080601008080FD
:104570000080008080800F300C030C300F00008022
:104580008000808080000020312E0E31200080804D
:1045900080000080808080818E701806010000807D
:1045A0008080808080000021302C2221300000009B
:1045B0000000807C020200000000003F404000003C
:1045C0000000FF00000000000000FF0000000002EB
:1045D000027C800000000040403F0000000000809E
:1045E0004040800000800000000000010100000049
:1045F000000000000000002F00000000070007007E
:1046000000147F147F1400242A7F2A120023130829
:104610006462003649552250000000070000000087
:104620001C224100000041221C000014083E081416
:104630000008083E0808000000A060000008080804
:104640000808000060600000002010080402003E1E
:104650005149453E0000427F4000004261514946B9
:10466000002141454B31001814127F1000274545A9
:104670004539003C4A4949300001710905030036BB
:104680004949493600064949291E000036360000CE
:1046900000005636000000081422410000141414D3
:1046A0001414000041221408000201510906003EC2
:1046B0004955592E007C1211127C007F4949493618
:1046C000003E41414122007F4141221C007F494977
:1046D0004941007F09090901003E4149497A007FAB
:1046E0000808087F0000417F4100002040413F0151
:1046F000007F08142241007F40404040007F020CB0
:10470000027F007F0408107F003E4141413E007F50
:1047100009090906003E4151215E007F0919294619
:104720000046494949310001017F0101003F4040F5
:10473000403F001F2040201F003F4038403F0063A3
:1047400014081463000708700807006151494543C5
:1047500000007F4141000002040810200000414198
:104760007F0000040201020400404040404000007D
:1047700001020400002054545478007F4844443817
:1047800000384444442000384444487F003854549E
:10479000541800087E0901020018A4A4A47C007F1C
:1047A000080404780000447D4000004080847D00BF
:1047B000007F102844000000417F4000007C041866
:1047C0000478007C0804047800384444443800FC31
:1047D000242424180018242418FC007C080404084D
:1047E00000485454542000043F444020003C4040C2
:1047F000207C001C2040201C003C4030403C0044F9
:1048000028102844001CA0A0A07C004464544C4400
:104810000000087F41000000007F00000000417F91
:104820000800000804081008A3AC00000000000005
:1048300000000000000000000000000000583800E8
:104840000000000000000000000000A1A300000024
:104850000000000000000000000000000000000058
:104860001824241800000000000000000000C4E329
:1048700000008060F8074020180F08C808082818B2
:1048800000010000FF00100C0340807F00010618AB
:1048900000BAC3001010F01F10F000808282E29274
:1048A0008A868000402215081661000040807F0043
:1048B00000000000CAC000202020FE2020FF202091
:1048C00020FF20202020000000007F40404744447B
:1048D00044474040400000BDE700000000FE9292C7
:1048E00092FE929292FE0000000008080484621E6C
:1048F000010001FE020404080800BEE000003E22A0
:10490000E2223E00FE2222222222E20200203F205A
:104910001F1111007F4444444444474000C0EB0051
:10492000040404F484D4A5A6A4D484F404040400E8
:1049300000FE0202123A1613121A3242827E000060
:10494000B7E40000F808FF08F880904C57A4544CD6
:104950008480002063211F113910101515FF1515D3
:10496000101000C3F90000FC0404FC0000FC041655
:10497000650484FC0000000F04040F0010131212E1
:10498000125292423E00C6F70080809E9292929E02
:10499000E0809EB2D2929E80000808F4949292F138
:1049A0000001F2929494F80800D5F000100C05551F
:1049B0005555057F0555555505140C0080403F1190
:1049C00015F5951515355555B5918000B6AF0040D4
:1049D00044C4444444401010FF101010F000001074
:1049E0003C131014B840300E014080403F0000C21C
:1049F000ED00000202F2828282828282FE8080804A
:104A00000000080808080808080808084880403F0F
:104A10000000B4EF00404042CC00101010907F9096
:104A200010101010000040201F2048444241404018
:104A300041424C4000C9F9000414D454545454DF8A
:104A400054545454D414040080601F020202020320
:104A50000202020203000000D2F400404044445429
:104A60006445464464544444404000000000FF490B
:104A7000494949494949FF00000000D3D0000404D6
:104A80000484E43C2724242424E4040404000402D1
:104A90000100FF0909090949897F00000000CEDEF5
:104AA000000040424242C27E42C242424240400076
:104AB00000804020100C0300003F40404040700048
:104AC00000D2EC0000007E92929292929292929E7C
:104AD00080E00000088848281E0808080808FE082A
:104AE00008080800B3A300201808EAACA8A8AFA8DB
:104AF000A8ACEA0828180000003E02020202FF02E9
:104B00000212221E000000B6A800100C44444444C7
:104B100045C64444444444140C008040201E2040B8
:104B2000407F4444444444404000CEBB0000806089
:104B3000F80710901011161010D01000000100009E
:104B4000FF4040415E4040704E41404000CAA700D7
:104B50000040301E101010FF101010101000000048
:104B600081814121110D0301030D1121418181003A
:104B7000B0DC0000FE02FA02FE4020D8171010F050
:104B80001010008047300F10678040211608162152
:104B9000408000B3C9000000F8888888880808FFB2
:104BA00008090AC8080080601F0010201F804021EB
:104BB00016182641F800B9A600080808F8080808E1
:104BC0001010FF101010F000001030101F0888485F
:104BD000300E014080403F0000000000FF01010155
:104BE0003109090909897101010101FFFF808080F4
:104BF0008080809681808080808080FF1C4C0008AF
:104C0000000000204C000000B8320008684C00088A
:104C10004C0000203C0C0000C832000800B3C9B9A9
:104C2000A6000000010000001000000000000000CD
:104C300000127A00CEDE00CEDE0000000000000090
:104C40000000000000000000CEDE000000000000B8
:104C50001A3139373032323038313230000000000A
:084C600000000000000000004C
:04000005080000ED02
:00000001FF
